{
  "contractName": "Faucet",
  "abi": [
    {
      "inputs": [],
      "name": "numOfFunders",
      "outputs": [
        {
          "internalType": "uint256",
          "name": "",
          "type": "uint256"
        }
      ],
      "stateMutability": "view",
      "type": "function",
      "constant": true
    },
    {
      "inputs": [],
      "name": "owner",
      "outputs": [
        {
          "internalType": "address",
          "name": "",
          "type": "address"
        }
      ],
      "stateMutability": "view",
      "type": "function",
      "constant": true
    },
    {
      "stateMutability": "payable",
      "type": "receive",
      "payable": true
    },
    {
      "inputs": [],
      "name": "addFunds",
      "outputs": [],
      "stateMutability": "payable",
      "type": "function",
      "payable": true
    },
    {
      "inputs": [
        {
          "internalType": "uint256",
          "name": "amount",
          "type": "uint256"
        }
      ],
      "name": "withdraw",
      "outputs": [],
      "stateMutability": "payable",
      "type": "function",
      "payable": true
    },
    {
      "inputs": [],
      "name": "emitLog",
      "outputs": [
        {
          "internalType": "bytes32",
          "name": "",
          "type": "bytes32"
        }
      ],
      "stateMutability": "pure",
      "type": "function",
      "constant": true
    },
    {
      "inputs": [
        {
          "internalType": "address",
          "name": "newOwner",
          "type": "address"
        }
      ],
      "name": "transferOwnership",
      "outputs": [],
      "stateMutability": "nonpayable",
      "type": "function"
    },
    {
      "inputs": [],
      "name": "getAllFunders",
      "outputs": [
        {
          "internalType": "address[]",
          "name": "",
          "type": "address[]"
        }
      ],
      "stateMutability": "view",
      "type": "function",
      "constant": true
    },
    {
      "inputs": [
        {
          "internalType": "uint8",
          "name": "index",
          "type": "uint8"
        }
      ],
      "name": "getFunderAtIndex",
      "outputs": [
        {
          "internalType": "address",
          "name": "",
          "type": "address"
        }
      ],
      "stateMutability": "view",
      "type": "function",
      "constant": true
    }
  ],
  "bytecode": "0x608060405234801561001057600080fd5b50336000806101000a81548173ffffffffffffffffffffffffffffffffffffffff021916908373ffffffffffffffffffffffffffffffffffffffff160217905550610ab2806100606000396000f3fe60806040526004361061007f5760003560e01c8063a26759cb1161004e578063a26759cb1461013a578063af7f2c9b14610144578063f2fde38b1461016f578063f42c13bf1461019857610086565b80630a93cf331461008b5780632e1a7d4d146100c85780636fbbb55d146100e45780638da5cb5b1461010f57610086565b3661008657005b600080fd5b34801561009757600080fd5b506100b260048036038101906100ad9190610614565b6101c3565b6040516100bf9190610682565b60405180910390f35b6100e260048036038101906100dd91906106d3565b610203565b005b3480156100f057600080fd5b506100f9610299565b60405161010691906107be565b60405180910390f35b34801561011b57600080fd5b50610124610393565b6040516101319190610682565b60405180910390f35b6101426103b7565b005b34801561015057600080fd5b506101596104d7565b60405161016691906107ef565b60405180910390f35b34801561017b57600080fd5b5061019660048036038101906101919190610836565b6104dd565b005b3480156101a457600080fd5b506101ad6105ae565b6040516101ba919061087c565b60405180910390f35b6000600360008360ff16815260200190815260200160002060009054906101000a900473ffffffffffffffffffffffffffffffffffffffff169050919050565b80662386f26fc1000081111561024e576040517f08c379a00000000000000000000000000000000000000000000000000000000081526004016102459061091a565b60405180910390fd5b3373ffffffffffffffffffffffffffffffffffffffff166108fc839081150290604051600060405180830381858888f19350505050158015610294573d6000803e3d6000fd5b505050565b6060600060015467ffffffffffffffff8111156102b9576102b861093a565b5b6040519080825280602002602001820160405280156102e75781602001602082028036833780820191505090505b50905060005b60015481101561038b576003600082815260200190815260200160002060009054906101000a900473ffffffffffffffffffffffffffffffffffffffff1682828151811061033e5761033d610969565b5b602002602001019073ffffffffffffffffffffffffffffffffffffffff16908173ffffffffffffffffffffffffffffffffffffffff16815250508080610383906109c7565b9150506102ed565b508091505090565b60008054906101000a900473ffffffffffffffffffffffffffffffffffffffff1681565b6000339050600260008273ffffffffffffffffffffffffffffffffffffffff1673ffffffffffffffffffffffffffffffffffffffff16815260200190815260200160002060009054906101000a900460ff166104d457600060016000815480929190610422906109c7565b9190505590506001600260008473ffffffffffffffffffffffffffffffffffffffff1673ffffffffffffffffffffffffffffffffffffffff16815260200190815260200160002060006101000a81548160ff021916908315150217905550816003600083815260200190815260200160002060006101000a81548173ffffffffffffffffffffffffffffffffffffffff021916908373ffffffffffffffffffffffffffffffffffffffff160217905550505b50565b60015481565b60008054906101000a900473ffffffffffffffffffffffffffffffffffffffff1673ffffffffffffffffffffffffffffffffffffffff163373ffffffffffffffffffffffffffffffffffffffff161461056b576040517f08c379a000000000000000000000000000000000000000000000000000000000815260040161056290610a5c565b60405180910390fd5b806000806101000a81548173ffffffffffffffffffffffffffffffffffffffff021916908373ffffffffffffffffffffffffffffffffffffffff16021790555050565b60007f496e686572697465642066726f6d206c6f676765720000000000000000000000905090565b600080fd5b600060ff82169050919050565b6105f1816105db565b81146105fc57600080fd5b50565b60008135905061060e816105e8565b92915050565b60006020828403121561062a576106296105d6565b5b6000610638848285016105ff565b91505092915050565b600073ffffffffffffffffffffffffffffffffffffffff82169050919050565b600061066c82610641565b9050919050565b61067c81610661565b82525050565b60006020820190506106976000830184610673565b92915050565b6000819050919050565b6106b08161069d565b81146106bb57600080fd5b50565b6000813590506106cd816106a7565b92915050565b6000602082840312156106e9576106e86105d6565b5b60006106f7848285016106be565b91505092915050565b600081519050919050565b600082825260208201905092915050565b6000819050602082019050919050565b61073581610661565b82525050565b6000610747838361072c565b60208301905092915050565b6000602082019050919050565b600061076b82610700565b610775818561070b565b93506107808361071c565b8060005b838110156107b1578151610798888261073b565b97506107a383610753565b925050600181019050610784565b5085935050505092915050565b600060208201905081810360008301526107d88184610760565b905092915050565b6107e98161069d565b82525050565b600060208201905061080460008301846107e0565b92915050565b61081381610661565b811461081e57600080fd5b50565b6000813590506108308161080a565b92915050565b60006020828403121561084c5761084b6105d6565b5b600061085a84828501610821565b91505092915050565b6000819050919050565b61087681610863565b82525050565b6000602082019050610891600083018461086d565b92915050565b600082825260208201905092915050565b7f596f752063616e206e6f74207769746864726177206d6f7265207468616e203060008201527f2e312045746865722e0000000000000000000000000000000000000000000000602082015250565b6000610904602983610897565b915061090f826108a8565b604082019050919050565b60006020820190508181036000830152610933816108f7565b9050919050565b7f4e487b7100000000000000000000000000000000000000000000000000000000600052604160045260246000fd5b7f4e487b7100000000000000000000000000000000000000000000000000000000600052603260045260246000fd5b7f4e487b7100000000000000000000000000000000000000000000000000000000600052601160045260246000fd5b60006109d28261069d565b91507fffffffffffffffffffffffffffffffffffffffffffffffffffffffffffffffff821415610a0557610a04610998565b5b600182019050919050565b7f4f6e6c79206f776e65722063616e2072756e20746869732066756e6374696f6e600082015250565b6000610a46602083610897565b9150610a5182610a10565b602082019050919050565b60006020820190508181036000830152610a7581610a39565b905091905056fea2646970667358221220426bba0d97d7c0ccdc0a36cb36cdef38f31b2a4ab0462e76d23a2f34b4a1426764736f6c634300080a0033",
  "immutableReferences": {},
  "source": "// SPDX-License-Identifier: MIT\r\npragma solidity ^0.8.0;\r\n\r\nimport \"./Owned.sol\"; \r\nimport \"./Logger.sol\";\r\nimport \"./IFaucet.sol\";\r\n \r\n/*-----------------------------------------------------------------------------------------------*/\r\n\r\ncontract Faucet is Owned, Logger, IFaucet {\r\n    uint256 public numOfFunders;\r\n\r\n    mapping(address => bool) private funders;\r\n    mapping(uint256 => address) private lutFunders; // lookup table founders\r\n\r\n    // special function for receiving ether. Called when tx that doesnt specify function name\r\n    receive() external payable {}\r\n\r\n    /*-------------------------------------------------------------------------------------------*/\r\n\r\n    function addFunds() external override payable {\r\n        address funder = msg.sender;\r\n        \r\n        if (!funders[funder]) {             // if the new funder(msg.sender) is not in the mapping, \r\n            uint256 index = numOfFunders++; // then increment number of funders\r\n            funders[funder] = true;         // make it true\r\n            lutFunders[index] = funder;     // and add the sender                 \r\n        } \r\n    }\r\n\r\n    /*-------------------------------------------------------------------------------------------*/\r\n\r\n    function withdraw(uint256 amount) override external payable limitWithdraw(amount) {\r\n        payable(msg.sender).transfer(amount);\r\n    }\r\n\r\n    /*-------------------------------------------------------------------------------------------*/\r\n\r\n    modifier limitWithdraw(uint256 amount) {\r\n        require (amount <= 0.01 ether, \"You can not withdraw more than 0.1 Ether.\" );\r\n        _;\r\n    }\r\n\r\n    /*-------------------------------------------------------------------------------------------*/\r\n\r\n    function emitLog() public virtual pure override returns(bytes32) {\r\n        return \"Inherited from logger\";\r\n    }\r\n\r\n    /*-------------------------------------------------------------------------------------------*/\r\n\r\n    function transferOwnership(address newOwner) external onlyOwner {\r\n        owner = newOwner;\r\n    }\r\n\r\n    /*-------------------------------------------------------------------------------------------*/\r\n\r\n    function getAllFunders() external view returns (address[] memory) {\r\n        // New array with same amount of items as numOfFunders\r\n        address[] memory _funders = new address[](numOfFunders); \r\n\r\n        for (uint256 i=0; i < numOfFunders; i++) { \r\n            _funders[i] = lutFunders[i]; \r\n        }\r\n        return _funders;\r\n    }\r\n\r\n    /*-------------------------------------------------------------------------------------------*/\r\n\r\n    function getFunderAtIndex(uint8 index) public view returns(address) {\r\n        return lutFunders[index];\r\n    }\r\n}",
  "sourcePath": "D:\\JX\\coding-projects\\fullstack-bchain\\faucet\\contracts\\Faucet.sol",
  "compiler": {
    "name": "solc",
    "version": "0.8.10+commit.fc410830.Emscripten.clang"
  },
  "schemaVersion": "3.4.3",
  "updatedAt": "2021-12-13T20:29:49.937Z",
  "networkType": "ethereum",
  "devdoc": {
    "kind": "dev",
    "methods": {},
    "version": 1
  },
  "userdoc": {
    "kind": "user",
    "methods": {},
    "version": 1
  }
}